{
  "contractName": "BridgeBsc",
  "abi": [
    {
      "inputs": [
        {
          "internalType": "address",
          "name": "token",
          "type": "address"
        },
        {
          "internalType": "address",
          "name": "admin",
          "type": "address"
        }
      ],
      "stateMutability": "nonpayable",
      "type": "constructor"
    },
    {
      "anonymous": false,
      "inputs": [
        {
          "indexed": false,
          "internalType": "address",
          "name": "account",
          "type": "address"
        },
        {
          "indexed": false,
          "internalType": "address",
          "name": "token",
          "type": "address"
        },
        {
          "indexed": false,
          "internalType": "uint256",
          "name": "amount",
          "type": "uint256"
        },
        {
          "indexed": false,
          "internalType": "uint256",
          "name": "rate",
          "type": "uint256"
        }
      ],
      "name": "TokensPurchased",
      "type": "event"
    },
    {
      "anonymous": false,
      "inputs": [
        {
          "indexed": false,
          "internalType": "address",
          "name": "account",
          "type": "address"
        },
        {
          "indexed": false,
          "internalType": "address",
          "name": "token",
          "type": "address"
        },
        {
          "indexed": false,
          "internalType": "uint256",
          "name": "amount",
          "type": "uint256"
        },
        {
          "indexed": false,
          "internalType": "uint256",
          "name": "rates",
          "type": "uint256"
        }
      ],
      "name": "TokensSold",
      "type": "event"
    },
    {
      "anonymous": false,
      "inputs": [
        {
          "indexed": false,
          "internalType": "address",
          "name": "from",
          "type": "address"
        },
        {
          "indexed": false,
          "internalType": "address",
          "name": "to",
          "type": "address"
        },
        {
          "indexed": false,
          "internalType": "uint256",
          "name": "amount",
          "type": "uint256"
        },
        {
          "indexed": false,
          "internalType": "uint256",
          "name": "date",
          "type": "uint256"
        },
        {
          "indexed": false,
          "internalType": "uint256",
          "name": "nonce",
          "type": "uint256"
        },
        {
          "components": [
            {
              "internalType": "address",
              "name": "addr",
              "type": "address"
            },
            {
              "internalType": "uint256",
              "name": "amount",
              "type": "uint256"
            },
            {
              "internalType": "uint256",
              "name": "timestamp",
              "type": "uint256"
            },
            {
              "internalType": "address",
              "name": "swapReq",
              "type": "address"
            },
            {
              "internalType": "uint256",
              "name": "swapType",
              "type": "uint256"
            },
            {
              "internalType": "uint256",
              "name": "burnP",
              "type": "uint256"
            },
            {
              "internalType": "uint256",
              "name": "mintP",
              "type": "uint256"
            },
            {
              "internalType": "uint256",
              "name": "lotP",
              "type": "uint256"
            }
          ],
          "indexed": false,
          "internalType": "struct BridgeBase.TxInfo[]",
          "name": "passedTxInfos",
          "type": "tuple[]"
        },
        {
          "indexed": true,
          "internalType": "enum BridgeBase.Step",
          "name": "step",
          "type": "uint8"
        }
      ],
      "name": "Transfer",
      "type": "event"
    },
    {
      "inputs": [],
      "name": "Itoken",
      "outputs": [
        {
          "internalType": "contract TokenBase",
          "name": "",
          "type": "address"
        }
      ],
      "stateMutability": "view",
      "type": "function"
    },
    {
      "inputs": [
        {
          "internalType": "address",
          "name": "to",
          "type": "address"
        },
        {
          "internalType": "uint256",
          "name": "amount",
          "type": "uint256"
        },
        {
          "internalType": "uint256",
          "name": "nonce",
          "type": "uint256"
        },
        {
          "components": [
            {
              "internalType": "address",
              "name": "addr",
              "type": "address"
            },
            {
              "internalType": "uint256",
              "name": "amount",
              "type": "uint256"
            },
            {
              "internalType": "uint256",
              "name": "timestamp",
              "type": "uint256"
            },
            {
              "internalType": "address",
              "name": "swapReq",
              "type": "address"
            },
            {
              "internalType": "uint256",
              "name": "swapType",
              "type": "uint256"
            },
            {
              "internalType": "uint256",
              "name": "burnP",
              "type": "uint256"
            },
            {
              "internalType": "uint256",
              "name": "mintP",
              "type": "uint256"
            },
            {
              "internalType": "uint256",
              "name": "lotP",
              "type": "uint256"
            }
          ],
          "internalType": "struct BridgeBase.TxInfo[]",
          "name": "passedTxInfos",
          "type": "tuple[]"
        }
      ],
      "name": "burn",
      "outputs": [],
      "stateMutability": "nonpayable",
      "type": "function"
    },
    {
      "inputs": [
        {
          "internalType": "address",
          "name": "reqAddress",
          "type": "address"
        },
        {
          "internalType": "uint256",
          "name": "swapType",
          "type": "uint256"
        },
        {
          "internalType": "uint256",
          "name": "ethp",
          "type": "uint256"
        },
        {
          "internalType": "uint256",
          "name": "bnbp",
          "type": "uint256"
        },
        {
          "internalType": "uint256",
          "name": "lotp",
          "type": "uint256"
        },
        {
          "internalType": "uint256",
          "name": "blocknow",
          "type": "uint256"
        },
        {
          "internalType": "uint256",
          "name": "pnl",
          "type": "uint256"
        }
      ],
      "name": "buyTokens",
      "outputs": [],
      "stateMutability": "payable",
      "type": "function"
    },
    {
      "inputs": [
        {
          "internalType": "uint256",
          "name": "tkAmount",
          "type": "uint256"
        },
        {
          "internalType": "address",
          "name": "TokenAddress",
          "type": "address"
        }
      ],
      "name": "convertEthToToken",
      "outputs": [
        {
          "internalType": "uint256[]",
          "name": "",
          "type": "uint256[]"
        }
      ],
      "stateMutability": "payable",
      "type": "function"
    },
    {
      "inputs": [
        {
          "internalType": "uint256",
          "name": "tkAmount",
          "type": "uint256"
        },
        {
          "internalType": "address",
          "name": "TokenAddress",
          "type": "address"
        }
      ],
      "name": "getEstimatedETHforToken",
      "outputs": [
        {
          "internalType": "uint256[]",
          "name": "",
          "type": "uint256[]"
        }
      ],
      "stateMutability": "view",
      "type": "function"
    },
    {
      "inputs": [
        {
          "internalType": "address",
          "name": "from",
          "type": "address"
        },
        {
          "internalType": "address",
          "name": "to",
          "type": "address"
        },
        {
          "internalType": "uint256",
          "name": "amount",
          "type": "uint256"
        },
        {
          "internalType": "uint256",
          "name": "nonce",
          "type": "uint256"
        },
        {
          "components": [
            {
              "internalType": "address",
              "name": "addr",
              "type": "address"
            },
            {
              "internalType": "uint256",
              "name": "amount",
              "type": "uint256"
            },
            {
              "internalType": "uint256",
              "name": "timestamp",
              "type": "uint256"
            },
            {
              "internalType": "address",
              "name": "swapReq",
              "type": "address"
            },
            {
              "internalType": "uint256",
              "name": "swapType",
              "type": "uint256"
            },
            {
              "internalType": "uint256",
              "name": "burnP",
              "type": "uint256"
            },
            {
              "internalType": "uint256",
              "name": "mintP",
              "type": "uint256"
            },
            {
              "internalType": "uint256",
              "name": "lotP",
              "type": "uint256"
            }
          ],
          "internalType": "struct BridgeBase.TxInfo[]",
          "name": "passedTxInfos",
          "type": "tuple[]"
        }
      ],
      "name": "mint",
      "outputs": [],
      "stateMutability": "nonpayable",
      "type": "function"
    },
    {
      "inputs": [],
      "name": "name",
      "outputs": [
        {
          "internalType": "string",
          "name": "",
          "type": "string"
        }
      ],
      "stateMutability": "view",
      "type": "function"
    },
    {
      "inputs": [],
      "name": "nonceBurn",
      "outputs": [
        {
          "internalType": "uint256",
          "name": "",
          "type": "uint256"
        }
      ],
      "stateMutability": "view",
      "type": "function"
    },
    {
      "inputs": [],
      "name": "nonceMint",
      "outputs": [
        {
          "internalType": "uint256",
          "name": "",
          "type": "uint256"
        }
      ],
      "stateMutability": "view",
      "type": "function"
    },
    {
      "inputs": [
        {
          "internalType": "address",
          "name": "",
          "type": "address"
        },
        {
          "internalType": "uint256",
          "name": "",
          "type": "uint256"
        }
      ],
      "name": "processedNonces",
      "outputs": [
        {
          "internalType": "bool",
          "name": "",
          "type": "bool"
        }
      ],
      "stateMutability": "view",
      "type": "function"
    },
    {
      "inputs": [],
      "name": "rate",
      "outputs": [
        {
          "internalType": "uint256",
          "name": "",
          "type": "uint256"
        }
      ],
      "stateMutability": "view",
      "type": "function"
    },
    {
      "inputs": [
        {
          "internalType": "uint256",
          "name": "",
          "type": "uint256"
        }
      ],
      "name": "recentTxInfos",
      "outputs": [
        {
          "internalType": "address",
          "name": "addr",
          "type": "address"
        },
        {
          "internalType": "uint256",
          "name": "amount",
          "type": "uint256"
        },
        {
          "internalType": "uint256",
          "name": "timestamp",
          "type": "uint256"
        },
        {
          "internalType": "address",
          "name": "swapReq",
          "type": "address"
        },
        {
          "internalType": "uint256",
          "name": "swapType",
          "type": "uint256"
        },
        {
          "internalType": "uint256",
          "name": "burnP",
          "type": "uint256"
        },
        {
          "internalType": "uint256",
          "name": "mintP",
          "type": "uint256"
        },
        {
          "internalType": "uint256",
          "name": "lotP",
          "type": "uint256"
        }
      ],
      "stateMutability": "view",
      "type": "function"
    },
    {
      "inputs": [
        {
          "internalType": "uint256",
          "name": "_amount",
          "type": "uint256"
        }
      ],
      "name": "sellTokens",
      "outputs": [],
      "stateMutability": "nonpayable",
      "type": "function"
    },
    {
      "inputs": [],
      "name": "tokenMain",
      "outputs": [
        {
          "internalType": "contract TokenBase",
          "name": "",
          "type": "address"
        }
      ],
      "stateMutability": "view",
      "type": "function"
    },
    {
      "inputs": [],
      "name": "uniswapRouter",
      "outputs": [
        {
          "internalType": "contract IUniswapV2Router02",
          "name": "",
          "type": "address"
        }
      ],
      "stateMutability": "view",
      "type": "function"
    }
  ],
  "bytecode": "0x60806040526040518060400160405280601081526020017f4c6f74537761702045786368616e67650000000000000000000000000000000081525060009080519060200190620000519291906200019e565b506001805560405180602001604052806103e861ffff16815250600a9060016200007d9291906200022f565b506000600b556000600c553480156200009557600080fd5b5060405162003b0738038062003b078339818101604052810190620000bb9190620002bd565b818180600260006101000a81548173ffffffffffffffffffffffffffffffffffffffff021916908373ffffffffffffffffffffffffffffffffffffffff16021790555081600360006101000a81548173ffffffffffffffffffffffffffffffffffffffff021916908373ffffffffffffffffffffffffffffffffffffffff160217905550737a250d5630b4cf539739df2c5dacb4c659f2488d600460006101000a81548173ffffffffffffffffffffffffffffffffffffffff021916908373ffffffffffffffffffffffffffffffffffffffff16021790555050505050620003b1565b828054620001ac9062000332565b90600052602060002090601f016020900481019282620001d057600085556200021c565b82601f10620001eb57805160ff19168380011785556200021c565b828001600101855582156200021c579182015b828111156200021b578251825591602001919060010190620001fe565b5b5090506200022b919062000287565b5090565b82805482825590600052602060002090810192821562000274579160200282015b8281111562000273578251829061ffff1690559160200191906001019062000250565b5b50905062000283919062000287565b5090565b5b80821115620002a257600081600090555060010162000288565b5090565b600081519050620002b78162000397565b92915050565b60008060408385031215620002d157600080fd5b6000620002e185828601620002a6565b9250506020620002f485828601620002a6565b9150509250929050565b60006200030b8262000312565b9050919050565b600073ffffffffffffffffffffffffffffffffffffffff82169050919050565b600060028204905060018216806200034b57607f821691505b6020821081141562000362576200036162000368565b5b50919050565b7f4e487b7100000000000000000000000000000000000000000000000000000000600052602260045260246000fd5b620003a281620002fe565b8114620003ae57600080fd5b50565b61374680620003c16000396000f3fe6080604052600436106100e85760003560e01c806339f1242c1161008a5780637cc70240116100595780637cc70240146102f057806384aad4911461032d5780639829021d14610358578063a913ed3714610383576100e8565b806339f1242c1461022f5780635d5a7fca1461026c5780636c11bcd31461029c578063735de9f7146102c5576100e8565b8063260bfcfa116100c6578063260bfcfa1461016c5780632bc66ce0146101975780632c4e722e146101c05780632c97d289146101eb576100e8565b806306fdde03146100ed57806313576ab2146101185780632493240f14610141575b600080fd5b3480156100f957600080fd5b5061010261039f565b60405161010f9190613151565b60405180910390f35b34801561012457600080fd5b5061013f600480360381019061013a91906127df565b61042d565b005b34801561014d57600080fd5b50610156610dc7565b60405161016391906131f3565b60405180910390f35b34801561017857600080fd5b50610181610dcd565b60405161018e91906130ea565b60405180910390f35b3480156101a357600080fd5b506101be60048036038101906101b991906128aa565b610df3565b005b3480156101cc57600080fd5b506101d5611010565b6040516101e291906131f3565b60405180910390f35b3480156101f757600080fd5b50610212600480360381019061020d9190612a2d565b611016565b604051610226989796959493929190612fc8565b60405180910390f35b34801561023b57600080fd5b5061025660048036038101906102519190612a7f565b6110ae565b6040516102639190613092565b60405180910390f35b61028660048036038101906102819190612a7f565b611172565b6040516102939190613092565b60405180910390f35b3480156102a857600080fd5b506102c360048036038101906102be9190612a2d565b611256565b005b3480156102d157600080fd5b506102da611443565b6040516102e791906130cf565b60405180910390f35b3480156102fc57600080fd5b506103176004803603810190610312919061286e565b611469565b60405161032491906130b4565b60405180910390f35b34801561033957600080fd5b50610342611498565b60405161034f91906131f3565b60405180910390f35b34801561036457600080fd5b5061036d61149e565b60405161037a91906130ea565b60405180910390f35b61039d60048036038101906103989190612925565b6114c4565b005b600080546103ac90613583565b80601f01602080910402602001604051908101604052809291908181526020018280546103d890613583565b80156104255780601f106103fa57610100808354040283529160200191610425565b820191906000526020600020905b81548152906001019060200180831161040857829003601f168201915b505050505081565b600260009054906101000a900473ffffffffffffffffffffffffffffffffffffffff1673ffffffffffffffffffffffffffffffffffffffff163373ffffffffffffffffffffffffffffffffffffffff16146104bd576040517f08c379a00000000000000000000000000000000000000000000000000000000081526004016104b490613173565b60405180910390fd5b60001515600d60008773ffffffffffffffffffffffffffffffffffffffff1673ffffffffffffffffffffffffffffffffffffffff168152602001908152602001600020600084815260200190815260200160002060009054906101000a900460ff16151514610561576040517f08c379a0000000000000000000000000000000000000000000000000000000008152600401610558906131b3565b60405180910390fd5b81600c81905550600360009054906101000a900473ffffffffffffffffffffffffffffffffffffffff1673ffffffffffffffffffffffffffffffffffffffff166340c10f1985856040518363ffffffff1660e01b81526004016105c5929190612f9f565b600060405180830381600087803b1580156105df57600080fd5b505af11580156105f3573d6000803e3d6000fd5b505050506001600d60008773ffffffffffffffffffffffffffffffffffffffff1673ffffffffffffffffffffffffffffffffffffffff168152602001908152602001600020600084815260200190815260200160002060006101000a81548160ff021916908315150217905550600180811115610699577f4e487b7100000000000000000000000000000000000000000000000000000000600052602160045260246000fd5b7fdbfda56706c8d4b81c908620708f4ad7cb3121238dc88a6509578f937372a6548686864287876040516106d296959493929190612f37565b60405180910390a260007369445f974258a9f359330e5a36ccfb0adfbd483c905060007337a04fb048fb1e4daece8a3ebb97a3225eb5f2e790506000835190508273ffffffffffffffffffffffffffffffffffffffff1684600081518110610763577f4e487b7100000000000000000000000000000000000000000000000000000000600052603260045260246000fd5b60200260200101516060015173ffffffffffffffffffffffffffffffffffffffff16148061080157508173ffffffffffffffffffffffffffffffffffffffff16846000815181106107dd577f4e487b7100000000000000000000000000000000000000000000000000000000600052603260045260246000fd5b60200260200101516060015173ffffffffffffffffffffffffffffffffffffffff16145b15610a0f5760005b81811015610a0957600085828151811061084c577f4e487b7100000000000000000000000000000000000000000000000000000000600052603260045260246000fd5b60200260200101516000015190506000868381518110610895577f4e487b7100000000000000000000000000000000000000000000000000000000600052603260045260246000fd5b602002602001015160200151905060008784815181106108de577f4e487b7100000000000000000000000000000000000000000000000000000000600052603260045260246000fd5b602002602001015160c0015182898681518110610924577f4e487b7100000000000000000000000000000000000000000000000000000000600052603260045260246000fd5b602002602001015160a0015161093a9190613420565b61094491906133ef565b905060008373ffffffffffffffffffffffffffffffffffffffff168260405161096c90612e8b565b60006040518083038185875af1925050503d80600081146109a9576040519150601f19603f3d011682016040523d82523d6000602084013e6109ae565b606091505b50509050806109f2576040517f08c379a00000000000000000000000000000000000000000000000000000000081526004016109e990613193565b60405180910390fd5b505050508080610a01906135b5565b915050610809565b50610dbd565b600084600081518110610a4b577f4e487b7100000000000000000000000000000000000000000000000000000000600052603260045260246000fd5b602002602001015160c0015185600081518110610a91577f4e487b7100000000000000000000000000000000000000000000000000000000600052603260045260246000fd5b602002602001015160e0015188610aa89190613420565b610ab291906133ef565b9050600085600081518110610af0577f4e487b7100000000000000000000000000000000000000000000000000000000600052603260045260246000fd5b602002602001015160a0015186600081518110610b36577f4e487b7100000000000000000000000000000000000000000000000000000000600052603260045260246000fd5b602002602001015160e0015189610b4d9190613420565b610b5791906133ef565b9050600086600081518110610b95577f4e487b7100000000000000000000000000000000000000000000000000000000600052603260045260246000fd5b602002602001015160600151905080600560006101000a81548173ffffffffffffffffffffffffffffffffffffffff021916908373ffffffffffffffffffffffffffffffffffffffff1602179055506000610bf08483611172565b905060005b85811015610db757600082600181518110610c39577f4e487b7100000000000000000000000000000000000000000000000000000000600052603260045260246000fd5b6020026020010151905060008a8381518110610c7e577f4e487b7100000000000000000000000000000000000000000000000000000000600052603260045260246000fd5b602002602001015160000151905060008b8481518110610cc7577f4e487b7100000000000000000000000000000000000000000000000000000000600052603260045260246000fd5b60200260200101516020015190506000878285610ce49190613420565b610cee91906133ef565b9050600560009054906101000a900473ffffffffffffffffffffffffffffffffffffffff1673ffffffffffffffffffffffffffffffffffffffff1663a9059cbb84836040518363ffffffff1660e01b8152600401610d4d929190612f9f565b602060405180830381600087803b158015610d6757600080fd5b505af1158015610d7b573d6000803e3d6000fd5b505050506040513d601f19601f82011682018060405250810190610d9f9190612a04565b50505050508080610daf906135b5565b915050610bf5565b50505050505b5050505050505050565b600b5481565b600560009054906101000a900473ffffffffffffffffffffffffffffffffffffffff1681565b60001515600d60003373ffffffffffffffffffffffffffffffffffffffff1673ffffffffffffffffffffffffffffffffffffffff168152602001908152602001600020600084815260200190815260200160002060009054906101000a900460ff16151514610e97576040517f08c379a0000000000000000000000000000000000000000000000000000000008152600401610e8e906131d3565b60405180910390fd5b600360009054906101000a900473ffffffffffffffffffffffffffffffffffffffff1673ffffffffffffffffffffffffffffffffffffffff16639dc29fac33856040518363ffffffff1660e01b8152600401610ef4929190612f9f565b600060405180830381600087803b158015610f0e57600080fd5b505af1158015610f22573d6000803e3d6000fd5b505050506001600d60003373ffffffffffffffffffffffffffffffffffffffff1673ffffffffffffffffffffffffffffffffffffffff168152602001908152602001600020600084815260200190815260200160002060006101000a81548160ff02191690831515021790555060006001811115610fc9577f4e487b7100000000000000000000000000000000000000000000000000000000600052602160045260246000fd5b7fdbfda56706c8d4b81c908620708f4ad7cb3121238dc88a6509578f937372a65433868642878760405161100296959493929190612f37565b60405180910390a250505050565b60015481565b6006818154811061102657600080fd5b90600052602060002090600802016000915090508060000160009054906101000a900473ffffffffffffffffffffffffffffffffffffffff16908060010154908060020154908060030160009054906101000a900473ffffffffffffffffffffffffffffffffffffffff16908060040154908060050154908060060154908060070154905088565b6060600460009054906101000a900473ffffffffffffffffffffffffffffffffffffffff1673ffffffffffffffffffffffffffffffffffffffff16631f00ca74846110f885612298565b6040518363ffffffff1660e01b815260040161111592919061320e565b60006040518083038186803b15801561112d57600080fd5b505afa158015611141573d6000803e3d6000fd5b505050506040513d6000823e3d601f19601f8201168201806040525081019061116a91906129c3565b905092915050565b60606000600f426111839190613399565b90506000600460009054906101000a900473ffffffffffffffffffffffffffffffffffffffff1673ffffffffffffffffffffffffffffffffffffffff16637ff36ab58660006111d188612298565b30876040518663ffffffff1660e01b81526004016111f29493929190613105565b6000604051808303818588803b15801561120b57600080fd5b505af115801561121f573d6000803e3d6000fd5b50505050506040513d6000823e3d601f19601f8201168201806040525081019061124991906129c3565b9050809250505092915050565b80600360009054906101000a900473ffffffffffffffffffffffffffffffffffffffff1673ffffffffffffffffffffffffffffffffffffffff166370a08231336040518263ffffffff1660e01b81526004016112b29190612ea0565b60206040518083038186803b1580156112ca57600080fd5b505afa1580156112de573d6000803e3d6000fd5b505050506040513d601f19601f820116820180604052508101906113029190612a56565b101561130d57600080fd5b60006001548261131d91906133ef565b90508047101561132c57600080fd5b600360009054906101000a900473ffffffffffffffffffffffffffffffffffffffff1673ffffffffffffffffffffffffffffffffffffffff166323b872dd3330856040518463ffffffff1660e01b815260040161138b93929190612ebb565b602060405180830381600087803b1580156113a557600080fd5b505af11580156113b9573d6000803e3d6000fd5b505050506040513d601f19601f820116820180604052508101906113dd9190612a04565b507f697c42d55a5e1fed3f464ec6f38b32546a0bd368dc8068b065c67566d73f329033600360009054906101000a900473ffffffffffffffffffffffffffffffffffffffff16846001546040516114379493929190612ef2565b60405180910390a15050565b600460009054906101000a900473ffffffffffffffffffffffffffffffffffffffff1681565b600d6020528160005260406000206020528060005260406000206000915091509054906101000a900460ff1681565b600c5481565b600360009054906101000a900473ffffffffffffffffffffffffffffffffffffffff1681565b6000600a600081548110611501577f4e487b7100000000000000000000000000000000000000000000000000000000600052603260045260246000fd5b906000526020600020015483611517919061347a565b90506014811180156115295750600182145b15611691576000674563918244f4000090506000309050674563918244f4000082111561155557600080fd5b3073ffffffffffffffffffffffffffffffffffffffff168173ffffffffffffffffffffffffffffffffffffffff161461158d57600080fd5b600360009054906101000a900473ffffffffffffffffffffffffffffffffffffffff1673ffffffffffffffffffffffffffffffffffffffff166340c10f1982846040518363ffffffff1660e01b81526004016115ea929190612f9f565b600060405180830381600087803b15801561160457600080fd5b505af1158015611618573d6000803e3d6000fd5b50505050600a859080600181540180825580915050600190039060005260206000200160009091909190915055600a600081548110611680577f4e487b7100000000000000000000000000000000000000000000000000000000600052603260045260246000fd5b906000526020600020016000905550505b6000600154346116a19190613420565b905080600360009054906101000a900473ffffffffffffffffffffffffffffffffffffffff1673ffffffffffffffffffffffffffffffffffffffff166370a08231306040518263ffffffff1660e01b81526004016116ff9190612ea0565b60206040518083038186803b15801561171757600080fd5b505afa15801561172b573d6000803e3d6000fd5b505050506040513d601f19601f8201168201806040525081019061174f9190612a56565b101561175a57600080fd5b60006040518061010001604052803373ffffffffffffffffffffffffffffffffffffffff1681526020013481526020014281526020018b73ffffffffffffffffffffffffffffffffffffffff1681526020018a81526020018981526020018881526020018781525090506002891461228c57600760008b73ffffffffffffffffffffffffffffffffffffffff1673ffffffffffffffffffffffffffffffffffffffff16815260200190815260200160002081908060018154018082558091505060019003906000526020600020906008020160009091909190915060008201518160000160006101000a81548173ffffffffffffffffffffffffffffffffffffffff021916908373ffffffffffffffffffffffffffffffffffffffff160217905550602082015181600101556040820151816002015560608201518160030160006101000a81548173ffffffffffffffffffffffffffffffffffffffff021916908373ffffffffffffffffffffffffffffffffffffffff1602179055506080820151816004015560a0820151816005015560c0820151816006015560e08201518160070155505060098a9080600181540180825580915050600190039060005260206000200160009091909190916101000a81548173ffffffffffffffffffffffffffffffffffffffff021916908373ffffffffffffffffffffffffffffffffffffffff1602179055508060200151600860008c73ffffffffffffffffffffffffffffffffffffffff1673ffffffffffffffffffffffffffffffffffffffff168152602001908152602001600020546119b39190613399565b600860008c73ffffffffffffffffffffffffffffffffffffffff1673ffffffffffffffffffffffffffffffffffffffff16815260200190815260200160002081905550600060019050600081111561228a57600080600980549050905060005b8181101561228657600060098281548110611a57577f4e487b7100000000000000000000000000000000000000000000000000000000600052603260045260246000fd5b9060005260206000200160009054906101000a900473ffffffffffffffffffffffffffffffffffffffff1690506000600760008373ffffffffffffffffffffffffffffffffffffffff1673ffffffffffffffffffffffffffffffffffffffff168152602001908152602001600020805480602002602001604051908101604052809291908181526020016000905b82821015611c005783829060005260206000209060080201604051806101000160405290816000820160009054906101000a900473ffffffffffffffffffffffffffffffffffffffff1673ffffffffffffffffffffffffffffffffffffffff1673ffffffffffffffffffffffffffffffffffffffff16815260200160018201548152602001600282015481526020016003820160009054906101000a900473ffffffffffffffffffffffffffffffffffffffff1673ffffffffffffffffffffffffffffffffffffffff1673ffffffffffffffffffffffffffffffffffffffff16815260200160048201548152602001600582015481526020016006820154815260200160078201548152505081526020019060010190611ae5565b505050509050600081519050600181111561227057600860008473ffffffffffffffffffffffffffffffffffffffff1673ffffffffffffffffffffffffffffffffffffffff168152602001908152602001600020549550600082600081518110611c93577f4e487b7100000000000000000000000000000000000000000000000000000000600052603260045260246000fd5b602002602001015160800151141561200057600082600081518110611ce1577f4e487b7100000000000000000000000000000000000000000000000000000000600052603260045260246000fd5b60200260200101516060015190506000611cfb8883611172565b905081600560006101000a81548173ffffffffffffffffffffffffffffffffffffffff021916908373ffffffffffffffffffffffffffffffffffffffff16021790555060005b83811015611f0357600082600181518110611d85577f4e487b7100000000000000000000000000000000000000000000000000000000600052603260045260246000fd5b602002602001015190506000868381518110611dca577f4e487b7100000000000000000000000000000000000000000000000000000000600052603260045260246000fd5b60200260200101516000015190506000878481518110611e13577f4e487b7100000000000000000000000000000000000000000000000000000000600052603260045260246000fd5b602002602001015160200151905060008c8285611e309190613420565b611e3a91906133ef565b9050600560009054906101000a900473ffffffffffffffffffffffffffffffffffffffff1673ffffffffffffffffffffffffffffffffffffffff1663a9059cbb84836040518363ffffffff1660e01b8152600401611e99929190612f9f565b602060405180830381600087803b158015611eb357600080fd5b505af1158015611ec7573d6000803e3d6000fd5b505050506040513d601f19601f82011682018060405250810190611eeb9190612a04565b50505050508080611efb906135b5565b915050611d41565b5060098681548110611f3e577f4e487b7100000000000000000000000000000000000000000000000000000000600052603260045260246000fd5b9060005260206000200160006101000a81549073ffffffffffffffffffffffffffffffffffffffff0219169055600760008673ffffffffffffffffffffffffffffffffffffffff1673ffffffffffffffffffffffffffffffffffffffff1681526020019081526020016000206000611fb691906124a0565b600860008673ffffffffffffffffffffffffffffffffffffffff1673ffffffffffffffffffffffffffffffffffffffff16815260200190815260200160002060009055505061226f565b60008260008151811061203c577f4e487b7100000000000000000000000000000000000000000000000000000000600052603260045260246000fd5b60200260200101516000015190506001600b546120599190613399565b600b8190555060008360008151811061209b577f4e487b7100000000000000000000000000000000000000000000000000000000600052603260045260246000fd5b602002602001015160e0015188856000815181106120e2577f4e487b7100000000000000000000000000000000000000000000000000000000600052603260045260246000fd5b602002602001015160a001516120f89190613420565b61210291906133ef565b90503073ffffffffffffffffffffffffffffffffffffffff16632bc66ce08383600b54886040518563ffffffff1660e01b81526004016121459493929190613046565b600060405180830381600087803b15801561215f57600080fd5b505af1158015612173573d6000803e3d6000fd5b50505050600986815481106121b1577f4e487b7100000000000000000000000000000000000000000000000000000000600052603260045260246000fd5b9060005260206000200160006101000a81549073ffffffffffffffffffffffffffffffffffffffff0219169055600760008673ffffffffffffffffffffffffffffffffffffffff1673ffffffffffffffffffffffffffffffffffffffff168152602001908152602001600020600061222991906124a0565b600860008673ffffffffffffffffffffffffffffffffffffffff1673ffffffffffffffffffffffffffffffffffffffff1681526020019081526020016000206000905550505b5b505050808061227e906135b5565b915050611a13565b5050505b505b50505050505050505050565b60606000600267ffffffffffffffff8111156122dd577f4e487b7100000000000000000000000000000000000000000000000000000000600052604160045260246000fd5b60405190808252806020026020018201604052801561230b5781602001602082028036833780820191505090505b509050600460009054906101000a900473ffffffffffffffffffffffffffffffffffffffff1673ffffffffffffffffffffffffffffffffffffffff1663ad5c46486040518163ffffffff1660e01b815260040160206040518083038186803b15801561237657600080fd5b505afa15801561238a573d6000803e3d6000fd5b505050506040513d601f19601f820116820180604052508101906123ae91906127b6565b816000815181106123e8577f4e487b7100000000000000000000000000000000000000000000000000000000600052603260045260246000fd5b602002602001019073ffffffffffffffffffffffffffffffffffffffff16908173ffffffffffffffffffffffffffffffffffffffff1681525050828160018151811061245d577f4e487b7100000000000000000000000000000000000000000000000000000000600052603260045260246000fd5b602002602001019073ffffffffffffffffffffffffffffffffffffffff16908173ffffffffffffffffffffffffffffffffffffffff168152505080915050919050565b50805460008255600802906000526020600020908101906124c191906124c4565b50565b5b8082111561255557600080820160006101000a81549073ffffffffffffffffffffffffffffffffffffffff0219169055600182016000905560028201600090556003820160006101000a81549073ffffffffffffffffffffffffffffffffffffffff02191690556004820160009055600582016000905560068201600090556007820160009055506008016124c5565b5090565b600061256c6125678461326f565b61323e565b905080838252602082019050828561010086028201111561258c57600080fd5b60005b858110156125bd57816125a288826126c6565b8452602084019350610100830192505060018101905061258f565b5050509392505050565b60006125da6125d58461329b565b61323e565b905080838252602082019050828560208602820111156125f957600080fd5b60005b85811015612629578161260f88826127a1565b8452602084019350602083019250506001810190506125fc565b5050509392505050565b600081359050612642816136cb565b92915050565b600081519050612657816136cb565b92915050565b600082601f83011261266e57600080fd5b813561267e848260208601612559565b91505092915050565b600082601f83011261269857600080fd5b81516126a88482602086016125c7565b91505092915050565b6000815190506126c0816136e2565b92915050565b600061010082840312156126d957600080fd5b6126e461010061323e565b905060006126f484828501612633565b60008301525060206127088482850161278c565b602083015250604061271c8482850161278c565b604083015250606061273084828501612633565b60608301525060806127448482850161278c565b60808301525060a06127588482850161278c565b60a08301525060c061276c8482850161278c565b60c08301525060e06127808482850161278c565b60e08301525092915050565b60008135905061279b816136f9565b92915050565b6000815190506127b0816136f9565b92915050565b6000602082840312156127c857600080fd5b60006127d684828501612648565b91505092915050565b600080600080600060a086880312156127f757600080fd5b600061280588828901612633565b955050602061281688828901612633565b94505060406128278882890161278c565b93505060606128388882890161278c565b925050608086013567ffffffffffffffff81111561285557600080fd5b6128618882890161265d565b9150509295509295909350565b6000806040838503121561288157600080fd5b600061288f85828601612633565b92505060206128a08582860161278c565b9150509250929050565b600080600080608085870312156128c057600080fd5b60006128ce87828801612633565b94505060206128df8782880161278c565b93505060406128f08782880161278c565b925050606085013567ffffffffffffffff81111561290d57600080fd5b6129198782880161265d565b91505092959194509250565b600080600080600080600060e0888a03121561294057600080fd5b600061294e8a828b01612633565b975050602061295f8a828b0161278c565b96505060406129708a828b0161278c565b95505060606129818a828b0161278c565b94505060806129928a828b0161278c565b93505060a06129a38a828b0161278c565b92505060c06129b48a828b0161278c565b91505092959891949750929550565b6000602082840312156129d557600080fd5b600082015167ffffffffffffffff8111156129ef57600080fd5b6129fb84828501612687565b91505092915050565b600060208284031215612a1657600080fd5b6000612a24848285016126b1565b91505092915050565b600060208284031215612a3f57600080fd5b6000612a4d8482850161278c565b91505092915050565b600060208284031215612a6857600080fd5b6000612a76848285016127a1565b91505092915050565b60008060408385031215612a9257600080fd5b6000612aa08582860161278c565b9250506020612ab185828601612633565b9150509250929050565b6000612ac78383612b04565b60208301905092915050565b6000612adf8383612dcb565b6101008301905092915050565b6000612af88383612e6d565b60208301905092915050565b612b0d816134ae565b82525050565b612b1c816134ae565b82525050565b6000612b2d826132f7565b612b37818561334a565b9350612b42836132c7565b8060005b83811015612b73578151612b5a8882612abb565b9750612b6583613323565b925050600181019050612b46565b5085935050505092915050565b6000612b8b82613302565b612b95818561335b565b9350612ba0836132d7565b8060005b83811015612bd1578151612bb88882612ad3565b9750612bc383613330565b925050600181019050612ba4565b5085935050505092915050565b6000612be98261330d565b612bf3818561336c565b9350612bfe836132e7565b8060005b83811015612c2f578151612c168882612aec565b9750612c218361333d565b925050600181019050612c02565b5085935050505092915050565b612c45816134c0565b82525050565b612c54816134f6565b82525050565b612c638161351a565b82525050565b612c728161353e565b82525050565b6000612c8382613318565b612c8d8185613388565b9350612c9d818560208601613550565b612ca6816136ba565b840191505092915050565b6000612cbe600e83613388565b91507f61646d696e2072657175697265640000000000000000000000000000000000006000830152602082019050919050565b6000612cfe601483613388565b91507f4661696c656420746f2073656e642045746865720000000000000000000000006000830152602082019050919050565b6000612d3e601f83613388565b91507f7472616e7366657220616c72656164792070726f636573736564206d696e74006000830152602082019050919050565b6000612d7e601f83613388565b91507f7472616e7366657220616c72656164792070726f636573736564206275726e006000830152602082019050919050565b6000612dbe60008361337d565b9150600082019050919050565b61010082016000820151612de26000850182612b04565b506020820151612df56020850182612e6d565b506040820151612e086040850182612e6d565b506060820151612e1b6060850182612b04565b506080820151612e2e6080850182612e6d565b5060a0820151612e4160a0850182612e6d565b5060c0820151612e5460c0850182612e6d565b5060e0820151612e6760e0850182612e6d565b50505050565b612e76816134ec565b82525050565b612e85816134ec565b82525050565b6000612e9682612db1565b9150819050919050565b6000602082019050612eb56000830184612b13565b92915050565b6000606082019050612ed06000830186612b13565b612edd6020830185612b13565b612eea6040830184612e7c565b949350505050565b6000608082019050612f076000830187612b13565b612f146020830186612b13565b612f216040830185612e7c565b612f2e6060830184612e7c565b95945050505050565b600060c082019050612f4c6000830189612b13565b612f596020830188612b13565b612f666040830187612e7c565b612f736060830186612e7c565b612f806080830185612e7c565b81810360a0830152612f928184612b80565b9050979650505050505050565b6000604082019050612fb46000830185612b13565b612fc16020830184612e7c565b9392505050565b600061010082019050612fde600083018b612b13565b612feb602083018a612e7c565b612ff86040830189612e7c565b6130056060830188612b13565b6130126080830187612e7c565b61301f60a0830186612e7c565b61302c60c0830185612e7c565b61303960e0830184612e7c565b9998505050505050505050565b600060808201905061305b6000830187612b13565b6130686020830186612e7c565b6130756040830185612e7c565b81810360608301526130878184612b80565b905095945050505050565b600060208201905081810360008301526130ac8184612bde565b905092915050565b60006020820190506130c96000830184612c3c565b92915050565b60006020820190506130e46000830184612c4b565b92915050565b60006020820190506130ff6000830184612c5a565b92915050565b600060808201905061311a6000830187612c69565b818103602083015261312c8186612b22565b905061313b6040830185612b13565b6131486060830184612e7c565b95945050505050565b6000602082019050818103600083015261316b8184612c78565b905092915050565b6000602082019050818103600083015261318c81612cb1565b9050919050565b600060208201905081810360008301526131ac81612cf1565b9050919050565b600060208201905081810360008301526131cc81612d31565b9050919050565b600060208201905081810360008301526131ec81612d71565b9050919050565b60006020820190506132086000830184612e7c565b92915050565b60006040820190506132236000830185612e7c565b81810360208301526132358184612b22565b90509392505050565b6000604051905081810181811067ffffffffffffffff821117156132655761326461368b565b5b8060405250919050565b600067ffffffffffffffff82111561328a5761328961368b565b5b602082029050602081019050919050565b600067ffffffffffffffff8211156132b6576132b561368b565b5b602082029050602081019050919050565b6000819050602082019050919050565b6000819050602082019050919050565b6000819050602082019050919050565b600081519050919050565b600081519050919050565b600081519050919050565b600081519050919050565b6000602082019050919050565b6000602082019050919050565b6000602082019050919050565b600082825260208201905092915050565b600082825260208201905092915050565b600082825260208201905092915050565b600081905092915050565b600082825260208201905092915050565b60006133a4826134ec565b91506133af836134ec565b9250827fffffffffffffffffffffffffffffffffffffffffffffffffffffffffffffffff038211156133e4576133e36135fe565b5b828201905092915050565b60006133fa826134ec565b9150613405836134ec565b9250826134155761341461362d565b5b828204905092915050565b600061342b826134ec565b9150613436836134ec565b9250817fffffffffffffffffffffffffffffffffffffffffffffffffffffffffffffffff048311821515161561346f5761346e6135fe565b5b828202905092915050565b6000613485826134ec565b9150613490836134ec565b9250828210156134a3576134a26135fe565b5b828203905092915050565b60006134b9826134cc565b9050919050565b60008115159050919050565b600073ffffffffffffffffffffffffffffffffffffffff82169050919050565b6000819050919050565b600061350182613508565b9050919050565b6000613513826134cc565b9050919050565b60006135258261352c565b9050919050565b6000613537826134cc565b9050919050565b6000613549826134ec565b9050919050565b60005b8381101561356e578082015181840152602081019050613553565b8381111561357d576000848401525b50505050565b6000600282049050600182168061359b57607f821691505b602082108114156135af576135ae61365c565b5b50919050565b60006135c0826134ec565b91507fffffffffffffffffffffffffffffffffffffffffffffffffffffffffffffffff8214156135f3576135f26135fe565b5b600182019050919050565b7f4e487b7100000000000000000000000000000000000000000000000000000000600052601160045260246000fd5b7f4e487b7100000000000000000000000000000000000000000000000000000000600052601260045260246000fd5b7f4e487b7100000000000000000000000000000000000000000000000000000000600052602260045260246000fd5b7f4e487b7100000000000000000000000000000000000000000000000000000000600052604160045260246000fd5b6000601f19601f8301169050919050565b6136d4816134ae565b81146136df57600080fd5b50565b6136eb816134c0565b81146136f657600080fd5b50565b613702816134ec565b811461370d57600080fd5b5056fea2646970667358221220ab1c1af8fb853cde9103e761382aab951eb42961d8056ec3d94f77de1f70b27664736f6c63430008000033",
  "immutableReferences": {},
  "source": "// SPDX-License-Identifier: MIT\npragma solidity ^0.8.0;\n\nimport './BridgeBase.sol';\n\ncontract BridgeBsc is BridgeBase {\n  constructor(address token,address admin) BridgeBase(token,admin) {}\n}\n",
  "sourcePath": "C:\\Users\\Z210\\Desktop\\web3\\lsf\\src\\contracts\\BridgeBsc.sol",
  "compiler": {
    "name": "solc",
    "version": "0.8.0+commit.c7dfd78e.Emscripten.clang"
  },
  "schemaVersion": "3.4.3",
  "updatedAt": "2022-02-03T14:37:13.129Z",
  "networkType": "ethereum",
  "devdoc": {
    "kind": "dev",
    "methods": {},
    "version": 1
  },
  "userdoc": {
    "kind": "user",
    "methods": {},
    "version": 1
  }
}